{
  "contractName": "DonationContract",
  "abi": [
    {
      "constant": true,
      "inputs": [
        {
          "name": "",
          "type": "address"
        }
      ],
      "name": "tips",
      "outputs": [
        {
          "name": "",
          "type": "uint256"
        }
      ],
      "payable": false,
      "stateMutability": "view",
      "type": "function",
      "signature": "0x1b21bc30"
    },
    {
      "inputs": [],
      "payable": false,
      "stateMutability": "nonpayable",
      "type": "constructor",
      "signature": "constructor"
    },
    {
      "constant": false,
      "inputs": [],
      "name": "tip",
      "outputs": [],
      "payable": true,
      "stateMutability": "payable",
      "type": "function",
      "signature": "0x2755cd2d"
    }
  ],
  "bytecode": "0x608060405234801561001057600080fd5b50336000806101000a81548173ffffffffffffffffffffffffffffffffffffffff021916908373ffffffffffffffffffffffffffffffffffffffff160217905550610398806100606000396000f3fe60806040526004361061004c576000357c0100000000000000000000000000000000000000000000000000000000900463ffffffff1680631b21bc30146100515780632755cd2d146100b6575b600080fd5b34801561005d57600080fd5b506100a06004803603602081101561007457600080fd5b81019080803573ffffffffffffffffffffffffffffffffffffffff1690602001909291905050506100c0565b6040518082815260200191505060405180910390f35b6100be6100d8565b005b60016020528060005260406000206000915090505481565b600080905060008090505b600280549050811015610173573373ffffffffffffffffffffffffffffffffffffffff1660028281548110151561011657fe5b9060005260206000200160009054906101000a900473ffffffffffffffffffffffffffffffffffffffff1673ffffffffffffffffffffffffffffffffffffffff1614156101665760019150610173565b80806001019150506100e3565b508015156101e25760023390806001815401808255809150509060018203906000526020600020016000909192909190916101000a81548173ffffffffffffffffffffffffffffffffffffffff021916908373ffffffffffffffffffffffffffffffffffffffff160217905550505b61023434600160003373ffffffffffffffffffffffffffffffffffffffff1673ffffffffffffffffffffffffffffffffffffffff168152602001908152602001600020546102e290919063ffffffff16565b600160003373ffffffffffffffffffffffffffffffffffffffff1673ffffffffffffffffffffffffffffffffffffffff168152602001908152602001600020819055506000809054906101000a900473ffffffffffffffffffffffffffffffffffffffff1673ffffffffffffffffffffffffffffffffffffffff166108fc349081150290604051600060405180830381858888f193505050501580156102de573d6000803e3d6000fd5b5050565b6000808284019050838110151515610362576040517f08c379a000000000000000000000000000000000000000000000000000000000815260040180806020018281038252601b8152602001807f536166654d6174683a206164646974696f6e206f766572666c6f77000000000081525060200191505060405180910390fd5b809150509291505056fea165627a7a72305820edc17e336430678537708c9da30165bba42fea083582dc7b7b9d89c0bedc0b610029",
  "source": "pragma solidity ^0.5.0;\r\n\r\nimport '../../node_modules/@openzeppelin/contracts/math/SafeMath.sol';\r\n\r\ncontract DonationContract{\r\n    using SafeMath for uint;\r\n    \r\n    address payable artist;\r\n    \r\n    constructor() public {\r\n        artist = msg.sender;\r\n    }\r\n    \r\n    mapping(address => uint) public tips;\r\n    address[] supporters;\r\n    \r\n    function tip() public payable {\r\n        bool oldSupporter = false;\r\n        for(uint i = 0; i < supporters.length; i++){\r\n            if(supporters[i] == msg.sender){\r\n                oldSupporter = true;\r\n                break;\r\n            }\r\n        }\r\n        if(!oldSupporter){\r\n            supporters.push(msg.sender);\r\n        }\r\n        tips[msg.sender] = tips[msg.sender].add(msg.value);\r\n        artist.transfer(msg.value);\r\n    }\r\n    \r\n    \r\n}",
  "sourcePath": "D:/blockchain-project/musika-moto/src/contracts/DonationContract.sol",
  "compiler": {
    "name": "solc",
    "version": "0.5.0+commit.1d4f565a.Emscripten.clang"
  },
  "schemaVersion": "3.0.1",
  "updatedAt": "2020-07-14T04:31:22.474Z",
  "devdoc": {
    "methods": {}
  },
  "userdoc": {
    "methods": {}
  }
}