{
  "contractName": "MusikaContract",
  "abi": [
    {
      "constant": true,
      "inputs": [
        {
          "name": "",
          "type": "uint256"
        }
      ],
      "name": "musikas",
      "outputs": [
        {
          "name": "musikaId",
          "type": "uint256"
        },
        {
          "name": "title",
          "type": "string"
        },
        {
          "name": "price",
          "type": "uint256"
        },
        {
          "name": "genre",
          "type": "string"
        },
        {
          "name": "description",
          "type": "string"
        },
        {
          "name": "coverPhoto",
          "type": "string"
        },
        {
          "name": "owner",
          "type": "address"
        },
        {
          "name": "timeUploaded",
          "type": "uint256"
        },
        {
          "name": "isSold",
          "type": "bool"
        }
      ],
      "payable": false,
      "stateMutability": "view",
      "type": "function",
      "signature": "0x65ef02b3"
    },
    {
      "constant": true,
      "inputs": [],
      "name": "musikaCount",
      "outputs": [
        {
          "name": "",
          "type": "uint256"
        }
      ],
      "payable": false,
      "stateMutability": "view",
      "type": "function",
      "signature": "0xcf055c1a"
    },
    {
      "constant": true,
      "inputs": [],
      "name": "test",
      "outputs": [
        {
          "name": "",
          "type": "string"
        }
      ],
      "payable": false,
      "stateMutability": "view",
      "type": "function",
      "signature": "0xf8a8fd6d"
    },
    {
      "inputs": [],
      "payable": false,
      "stateMutability": "nonpayable",
      "type": "constructor",
      "signature": "constructor"
    },
    {
      "anonymous": false,
      "inputs": [
        {
          "indexed": false,
          "name": "musikaId",
          "type": "uint256"
        },
        {
          "indexed": false,
          "name": "title",
          "type": "string"
        },
        {
          "indexed": false,
          "name": "price",
          "type": "uint256"
        },
        {
          "indexed": false,
          "name": "genre",
          "type": "string"
        },
        {
          "indexed": false,
          "name": "description",
          "type": "string"
        },
        {
          "indexed": false,
          "name": "coverPhoto",
          "type": "string"
        },
        {
          "indexed": false,
          "name": "owner",
          "type": "address"
        },
        {
          "indexed": false,
          "name": "timeUploaded",
          "type": "uint256"
        },
        {
          "indexed": false,
          "name": "isSold",
          "type": "bool"
        }
      ],
      "name": "MusikaUploaded",
      "type": "event",
      "signature": "0x8cd3ea6b421b5c4dd28d47db1461457285abe741ed332ded67dcc4092e4358fa"
    },
    {
      "anonymous": false,
      "inputs": [
        {
          "indexed": false,
          "name": "musikaId",
          "type": "uint256"
        },
        {
          "indexed": false,
          "name": "title",
          "type": "string"
        },
        {
          "indexed": false,
          "name": "price",
          "type": "uint256"
        },
        {
          "indexed": false,
          "name": "genre",
          "type": "string"
        },
        {
          "indexed": false,
          "name": "description",
          "type": "string"
        },
        {
          "indexed": false,
          "name": "coverPhoto",
          "type": "string"
        },
        {
          "indexed": false,
          "name": "owner",
          "type": "address"
        },
        {
          "indexed": false,
          "name": "timeUploaded",
          "type": "uint256"
        },
        {
          "indexed": false,
          "name": "isSold",
          "type": "bool"
        }
      ],
      "name": "MusikaPurchased",
      "type": "event",
      "signature": "0x00ff2ee4ab81c1425a6a7203c223eaa9ccea767b2ada400dc30a8d294f6b5b91"
    },
    {
      "constant": false,
      "inputs": [
        {
          "name": "_title",
          "type": "string"
        },
        {
          "name": "_price",
          "type": "uint256"
        },
        {
          "name": "_genre",
          "type": "string"
        },
        {
          "name": "_description",
          "type": "string"
        },
        {
          "name": "_coverPhoto",
          "type": "string"
        }
      ],
      "name": "uploadMusika",
      "outputs": [],
      "payable": false,
      "stateMutability": "nonpayable",
      "type": "function",
      "signature": "0x33742c6e"
    },
    {
      "constant": true,
      "inputs": [
        {
          "name": "_musikaId",
          "type": "uint256"
        }
      ],
      "name": "viewSelectedMusikaDetails",
      "outputs": [
        {
          "name": "",
          "type": "string"
        },
        {
          "name": "",
          "type": "uint256"
        },
        {
          "name": "",
          "type": "string"
        },
        {
          "name": "",
          "type": "string"
        },
        {
          "name": "",
          "type": "uint256"
        },
        {
          "name": "",
          "type": "bool"
        },
        {
          "name": "",
          "type": "address"
        }
      ],
      "payable": false,
      "stateMutability": "view",
      "type": "function",
      "signature": "0x4d476554"
    },
    {
      "constant": false,
      "inputs": [
        {
          "name": "_musikaId",
          "type": "uint256"
        }
      ],
      "name": "puchaseMusika",
      "outputs": [],
      "payable": true,
      "stateMutability": "payable",
      "type": "function",
      "signature": "0xa4d61dc5"
    }
  ],
  "bytecode": "0x608060405260006001553480156200001657600080fd5b506040805190810160405280600481526020017f746573740000000000000000000000000000000000000000000000000000000081525060009080519060200190620000649291906200006b565b506200011a565b828054600181600116156101000203166002900490600052602060002090601f016020900481019282601f10620000ae57805160ff1916838001178555620000df565b82800160010185558215620000df579182015b82811115620000de578251825591602001919060010190620000c1565b5b509050620000ee9190620000f2565b5090565b6200011791905b8082111562000113576000816000905550600101620000f9565b5090565b90565b611bb9806200012a6000396000f3fe608060405260043610610078576000357c0100000000000000000000000000000000000000000000000000000000900463ffffffff16806333742c6e1461007d5780634d4765541461031457806365ef02b3146104ec578063a4d61dc514610737578063cf055c1a14610765578063f8a8fd6d14610790575b600080fd5b34801561008957600080fd5b50610312600480360360a08110156100a057600080fd5b81019080803590602001906401000000008111156100bd57600080fd5b8201836020820111156100cf57600080fd5b803590602001918460018302840111640100000000831117156100f157600080fd5b91908080601f016020809104026020016040519081016040528093929190818152602001838380828437600081840152601f19601f820116905080830192505050505050509192919290803590602001909291908035906020019064010000000081111561015e57600080fd5b82018360208201111561017057600080fd5b8035906020019184600183028401116401000000008311171561019257600080fd5b91908080601f016020809104026020016040519081016040528093929190818152602001838380828437600081840152601f19601f820116905080830192505050505050509192919290803590602001906401000000008111156101f557600080fd5b82018360208201111561020757600080fd5b8035906020019184600183028401116401000000008311171561022957600080fd5b91908080601f016020809104026020016040519081016040528093929190818152602001838380828437600081840152601f19601f8201169050808301925050505050505091929192908035906020019064010000000081111561028c57600080fd5b82018360208201111561029e57600080fd5b803590602001918460018302840111640100000000831117156102c057600080fd5b91908080601f016020809104026020016040519081016040528093929190818152602001838380828437600081840152601f19601f820116905080830192505050505050509192919290505050610820565b005b34801561032057600080fd5b5061034d6004803603602081101561033757600080fd5b8101908080359060200190929190505050610cfc565b60405180806020018881526020018060200180602001878152602001861515151581526020018573ffffffffffffffffffffffffffffffffffffffff1673ffffffffffffffffffffffffffffffffffffffff16815260200184810384528b818151815260200191508051906020019080838360005b838110156103dd5780820151818401526020810190506103c2565b50505050905090810190601f16801561040a5780820380516001836020036101000a031916815260200191505b50848103835289818151815260200191508051906020019080838360005b83811015610443578082015181840152602081019050610428565b50505050905090810190601f1680156104705780820380516001836020036101000a031916815260200191505b50848103825288818151815260200191508051906020019080838360005b838110156104a957808201518184015260208101905061048e565b50505050905090810190601f1680156104d65780820380516001836020036101000a031916815260200191505b509a505050505050505050505060405180910390f35b3480156104f857600080fd5b506105256004803603602081101561050f57600080fd5b8101908080359060200190929190505050610fc3565b604051808a8152602001806020018981526020018060200180602001806020018873ffffffffffffffffffffffffffffffffffffffff1673ffffffffffffffffffffffffffffffffffffffff1681526020018781526020018615151515815260200185810385528d818151815260200191508051906020019080838360005b838110156105bf5780820151818401526020810190506105a4565b50505050905090810190601f1680156105ec5780820380516001836020036101000a031916815260200191505b5085810384528b818151815260200191508051906020019080838360005b8381101561062557808201518184015260208101905061060a565b50505050905090810190601f1680156106525780820380516001836020036101000a031916815260200191505b5085810383528a818151815260200191508051906020019080838360005b8381101561068b578082015181840152602081019050610670565b50505050905090810190601f1680156106b85780820380516001836020036101000a031916815260200191505b50858103825289818151815260200191508051906020019080838360005b838110156106f15780820151818401526020810190506106d6565b50505050905090810190601f16801561071e5780820380516001836020036101000a031916815260200191505b509d505050505050505050505050505060405180910390f35b6107636004803603602081101561074d57600080fd5b810190808035906020019092919050505061129e565b005b34801561077157600080fd5b5061077a6119df565b6040518082815260200191505060405180910390f35b34801561079c57600080fd5b506107a56119e5565b6040518080602001828103825283818151815260200191508051906020019080838360005b838110156107e55780820151818401526020810190506107ca565b50505050905090810190601f1680156108125780820380516001836020036101000a031916815260200191505b509250505060405180910390f35b60008551111515610899576040517f08c379a00000000000000000000000000000000000000000000000000000000081526004018080602001828103825260178152602001807f5469746c65206d757374206e6f7420626520656d70747900000000000000000081525060200191505060405180910390fd5b600084111515610937576040517f08c379a00000000000000000000000000000000000000000000000000000000081526004018080602001828103825260298152602001807f5072696365206d75737420686176652076616c7565207468617420677265617481526020017f6572207468616e2030000000000000000000000000000000000000000000000081525060400191505060405180910390fd5b6001600081548092919060010191905055506101206040519081016040528060015481526020018681526020018581526020018481526020018381526020018281526020013373ffffffffffffffffffffffffffffffffffffffff168152602001428152602001600015158152506002600060015481526020019081526020016000206000820151816000015560208201518160010190805190602001906109e0929190611a83565b50604082015181600201556060820151816003019080519060200190610a07929190611a83565b506080820151816004019080519060200190610a24929190611a83565b5060a0820151816005019080519060200190610a41929190611a83565b5060c08201518160060160006101000a81548173ffffffffffffffffffffffffffffffffffffffff021916908373ffffffffffffffffffffffffffffffffffffffff16021790555060e082015181600701556101008201518160080160006101000a81548160ff0219169083151502179055509050507f8cd3ea6b421b5c4dd28d47db1461457285abe741ed332ded67dcc4092e4358fa600154868686868633426000604051808a8152602001806020018981526020018060200180602001806020018873ffffffffffffffffffffffffffffffffffffffff1673ffffffffffffffffffffffffffffffffffffffff1681526020018781526020018615151515815260200185810385528d818151815260200191508051906020019080838360005b83811015610b7e578082015181840152602081019050610b63565b50505050905090810190601f168015610bab5780820380516001836020036101000a031916815260200191505b5085810384528b818151815260200191508051906020019080838360005b83811015610be4578082015181840152602081019050610bc9565b50505050905090810190601f168015610c115780820380516001836020036101000a031916815260200191505b5085810383528a818151815260200191508051906020019080838360005b83811015610c4a578082015181840152602081019050610c2f565b50505050905090810190601f168015610c775780820380516001836020036101000a031916815260200191505b50858103825289818151815260200191508051906020019080838360005b83811015610cb0578082015181840152602081019050610c95565b50505050905090810190601f168015610cdd5780820380516001836020036101000a031916815260200191505b509d505050505050505050505050505060405180910390a15050505050565b60606000606080600080600060026000898152602001908152602001600020600101600260008a815260200190815260200160002060020154600260008b8152602001908152602001600020600301600260008c8152602001908152602001600020600401600260008d815260200190815260200160002060070154600260008e815260200190815260200160002060080160009054906101000a900460ff16600260008f815260200190815260200160002060060160009054906101000a900473ffffffffffffffffffffffffffffffffffffffff16868054600181600116156101000203166002900480601f016020809104026020016040519081016040528092919081815260200182805460018160011615610100020316600290048015610e685780601f10610e3d57610100808354040283529160200191610e68565b820191906000526020600020905b815481529060010190602001808311610e4b57829003601f168201915b50505050509650848054600181600116156101000203166002900480601f016020809104026020016040519081016040528092919081815260200182805460018160011615610100020316600290048015610f045780601f10610ed957610100808354040283529160200191610f04565b820191906000526020600020905b815481529060010190602001808311610ee757829003601f168201915b50505050509450838054600181600116156101000203166002900480601f016020809104026020016040519081016040528092919081815260200182805460018160011615610100020316600290048015610fa05780601f10610f7557610100808354040283529160200191610fa0565b820191906000526020600020905b815481529060010190602001808311610f8357829003601f168201915b505050505093508090509650965096509650965096509650919395979092949650565b6002602052806000526040600020600091509050806000015490806001018054600181600116156101000203166002900480601f0160208091040260200160405190810160405280929190818152602001828054600181600116156101000203166002900480156110755780601f1061104a57610100808354040283529160200191611075565b820191906000526020600020905b81548152906001019060200180831161105857829003601f168201915b505050505090806002015490806003018054600181600116156101000203166002900480601f0160208091040260200160405190810160405280929190818152602001828054600181600116156101000203166002900480156111195780601f106110ee57610100808354040283529160200191611119565b820191906000526020600020905b8154815290600101906020018083116110fc57829003601f168201915b505050505090806004018054600181600116156101000203166002900480601f0160208091040260200160405190810160405280929190818152602001828054600181600116156101000203166002900480156111b75780601f1061118c576101008083540402835291602001916111b7565b820191906000526020600020905b81548152906001019060200180831161119a57829003601f168201915b505050505090806005018054600181600116156101000203166002900480601f0160208091040260200160405190810160405280929190818152602001828054600181600116156101000203166002900480156112555780601f1061122a57610100808354040283529160200191611255565b820191906000526020600020905b81548152906001019060200180831161123857829003601f168201915b5050505050908060060160009054906101000a900473ffffffffffffffffffffffffffffffffffffffff16908060070154908060080160009054906101000a900460ff16905089565b6112a6611b03565b60026000838152602001908152602001600020610120604051908101604052908160008201548152602001600182018054600181600116156101000203166002900480601f0160208091040260200160405190810160405280929190818152602001828054600181600116156101000203166002900480156113695780601f1061133e57610100808354040283529160200191611369565b820191906000526020600020905b81548152906001019060200180831161134c57829003601f168201915b5050505050815260200160028201548152602001600382018054600181600116156101000203166002900480601f0160208091040260200160405190810160405280929190818152602001828054600181600116156101000203166002900480156114155780601f106113ea57610100808354040283529160200191611415565b820191906000526020600020905b8154815290600101906020018083116113f857829003601f168201915b50505050508152602001600482018054600181600116156101000203166002900480601f0160208091040260200160405190810160405280929190818152602001828054600181600116156101000203166002900480156114b75780601f1061148c576101008083540402835291602001916114b7565b820191906000526020600020905b81548152906001019060200180831161149a57829003601f168201915b50505050508152602001600582018054600181600116156101000203166002900480601f0160208091040260200160405190810160405280929190818152602001828054600181600116156101000203166002900480156115595780601f1061152e57610100808354040283529160200191611559565b820191906000526020600020905b81548152906001019060200180831161153c57829003601f168201915b505050505081526020016006820160009054906101000a900473ffffffffffffffffffffffffffffffffffffffff1673ffffffffffffffffffffffffffffffffffffffff1673ffffffffffffffffffffffffffffffffffffffff168152602001600782015481526020016008820160009054906101000a900460ff161515151581525050905060008160c001519050338260c0019073ffffffffffffffffffffffffffffffffffffffff16908173ffffffffffffffffffffffffffffffffffffffff1681525050600182610100019015159081151581525050816002600085815260200190815260200160002060008201518160000155602082015181600101908051906020019061166c929190611a83565b50604082015181600201556060820151816003019080519060200190611693929190611a83565b5060808201518160040190805190602001906116b0929190611a83565b5060a08201518160050190805190602001906116cd929190611a83565b5060c08201518160060160006101000a81548173ffffffffffffffffffffffffffffffffffffffff021916908373ffffffffffffffffffffffffffffffffffffffff16021790555060e082015181600701556101008201518160080160006101000a81548160ff0219169083151502179055509050508073ffffffffffffffffffffffffffffffffffffffff166108fc349081150290604051600060405180830381858888f19350505050158015611789573d6000803e3d6000fd5b507f8cd3ea6b421b5c4dd28d47db1461457285abe741ed332ded67dcc4092e4358fa8383602001518460400151856060015186608001518760a0015133426001604051808a8152602001806020018981526020018060200180602001806020018873ffffffffffffffffffffffffffffffffffffffff1673ffffffffffffffffffffffffffffffffffffffff1681526020018781526020018615151515815260200185810385528d818151815260200191508051906020019080838360005b83811015611863578082015181840152602081019050611848565b50505050905090810190601f1680156118905780820380516001836020036101000a031916815260200191505b5085810384528b818151815260200191508051906020019080838360005b838110156118c95780820151818401526020810190506118ae565b50505050905090810190601f1680156118f65780820380516001836020036101000a031916815260200191505b5085810383528a818151815260200191508051906020019080838360005b8381101561192f578082015181840152602081019050611914565b50505050905090810190601f16801561195c5780820380516001836020036101000a031916815260200191505b50858103825289818151815260200191508051906020019080838360005b8381101561199557808201518184015260208101905061197a565b50505050905090810190601f1680156119c25780820380516001836020036101000a031916815260200191505b509d505050505050505050505050505060405180910390a1505050565b60015481565b60008054600181600116156101000203166002900480601f016020809104026020016040519081016040528092919081815260200182805460018160011615610100020316600290048015611a7b5780601f10611a5057610100808354040283529160200191611a7b565b820191906000526020600020905b815481529060010190602001808311611a5e57829003601f168201915b505050505081565b828054600181600116156101000203166002900490600052602060002090601f016020900481019282601f10611ac457805160ff1916838001178555611af2565b82800160010185558215611af2579182015b82811115611af1578251825591602001919060010190611ad6565b5b509050611aff9190611b68565b5090565b61012060405190810160405280600081526020016060815260200160008152602001606081526020016060815260200160608152602001600073ffffffffffffffffffffffffffffffffffffffff168152602001600081526020016000151581525090565b611b8a91905b80821115611b86576000816000905550600101611b6e565b5090565b9056fea165627a7a7230582062a95c8d6fdc1853b815e4f7032186e3b904a9018700d4cc3cbd5d95d047aeef0029",
  "source": "pragma solidity ^0.5.0;\r\n\r\ncontract MusikaContract{\r\n    string public test;\r\n    uint256 public musikaCount = 0;\r\n    \r\n    mapping(uint256 => Musika) public musikas;\r\n    \r\n    struct Musika{\r\n        uint256 musikaId;\r\n        string title;\r\n        uint256 price;\r\n        string genre;\r\n        string description;\r\n        string coverPhoto;\r\n        address payable owner;\r\n        uint256 timeUploaded;\r\n        bool isSold;\r\n    }\r\n    \r\n    constructor() public{\r\n        test = \"test\";\r\n    }\r\n    \r\n    event MusikaUploaded(\r\n        uint256 musikaId,\r\n        string title,\r\n        uint256 price,\r\n        string genre,\r\n        string description,\r\n        string coverPhoto,\r\n        address payable owner,\r\n        uint256 timeUploaded,\r\n        bool isSold\r\n    );\r\n    \r\n    event MusikaPurchased(\r\n        uint256 musikaId,\r\n        string title,\r\n        uint256 price,\r\n        string genre,\r\n        string description,\r\n        string coverPhoto,\r\n        address payable owner,\r\n        uint256 timeUploaded,\r\n        bool isSold\r\n    );\r\n    \r\n    function uploadMusika(string memory _title, uint256 _price, string memory _genre, string memory _description, string memory _coverPhoto) public {\r\n        require(bytes(_title).length > 0, \"Title must not be empty\");\r\n        require(_price > 0, \"Price must have value that greater than 0\");\r\n        musikaCount++;\r\n        musikas[musikaCount] = Musika(musikaCount, _title, _price, _genre, _description, _coverPhoto, msg.sender, now, false);\r\n        emit MusikaUploaded(musikaCount, _title, _price, _genre, _description, _coverPhoto, msg.sender, now, false);\r\n    }\r\n    \r\n    function viewSelectedMusikaDetails(uint256 _musikaId) public view returns(string memory, uint256, string memory, string memory,  uint256, bool, address){\r\n        return (musikas[_musikaId].title, musikas[_musikaId].price, musikas[_musikaId].genre, musikas[_musikaId].description, musikas[_musikaId].timeUploaded, musikas[_musikaId].isSold, musikas[_musikaId].owner);\r\n    }\r\n    \r\n    function puchaseMusika(uint256 _musikaId) public payable{\r\n        Musika memory _musika = musikas[_musikaId];\r\n        address payable _artistSeller = _musika.owner;\r\n        _musika.owner = msg.sender;\r\n        _musika.isSold = true;\r\n        musikas[_musikaId] = _musika;\r\n        _artistSeller.transfer(msg.value);\r\n        emit MusikaUploaded(_musikaId, _musika.title, _musika.price, _musika.genre, _musika.description, _musika.coverPhoto, msg.sender, now, true);\r\n        \r\n    }\r\n    \r\n    \r\n}\r\n",
  "sourcePath": "D:/blockchain-project/musika-moto/src/contracts/MusikaContract.sol",
  "compiler": {
    "name": "solc",
    "version": "0.5.0+commit.1d4f565a.Emscripten.clang"
  },
  "schemaVersion": "3.0.1",
  "updatedAt": "2020-07-14T04:31:22.483Z",
  "devdoc": {
    "methods": {}
  },
  "userdoc": {
    "methods": {}
  }
}